{
    "contractName": "Crypto",
    "abi": [
        {
            "inputs": [],
            "stateMutability": "nonpayable",
            "type": "constructor"
        },
        {
            "inputs": [
                {
                    "internalType": "uint256",
                    "name": "amount",
                    "type": "uint256"
                }
            ],
            "name": "depositBalance",
            "outputs": [],
            "stateMutability": "nonpayable",
            "type": "function"
        },
        {
            "inputs": [],
            "name": "getBalance",
            "outputs": [
                {
                    "internalType": "uint256",
                    "name": "",
                    "type": "uint256"
                }
            ],
            "stateMutability": "view",
            "type": "function"
        },
        {
            "inputs": [
                {
                    "internalType": "uint256",
                    "name": "amount",
                    "type": "uint256"
                }
            ],
            "name": "withdrawBalance",
            "outputs": [],
            "stateMutability": "nonpayable",
            "type": "function"
        }
    ],
    "bytecode": "608060405234801561001057600080fd5b5060008055610193806100246000396000f3fe608060405234801561001057600080fd5b50600436106100415760003560e01c806312065fe0146100465780631ec576341461005b578063da76d5cd14610070575b600080fd5b60005460405190815260200160405180910390f35b61006e610069366004610102565b610083565b005b61006e61007e366004610102565b61009c565b806000808282546100949190610131565b909155505050565b80600054116100f15760405162461bcd60e51b815260206004820152601c60248201527f566f7573206e6176657a2070617320617373657a20646520666f6e6400000000604482015260640160405180910390fd5b80600080828254610094919061014a565b60006020828403121561011457600080fd5b5035919050565b634e487b7160e01b600052601160045260246000fd5b808201808211156101445761014461011b565b92915050565b818103818111156101445761014461011b56fea264697066735822122069f1227ee5d1a275b2afe80b36d48165f3d520627b52ba77dc3b9c391d8f1db564736f6c63430008110033",
    "sourcePath": "c:/Users/rosby/Desktop/Projet/apprxchange/contracts/Crypto.sol",
    "compiler": {
        "name": "solc",
        "version": "0.8.17+commit.8df45f5f"
    },
    "functionHashes": {
        "depositBalance(uint256)": "1ec57634",
        "getBalance()": "12065fe0",
        "withdrawBalance(uint256)": "da76d5cd"
    },
    "gasEstimates": {
        "creation": {
            "codeDepositCost": "80600",
            "executionCost": "5135",
            "totalCost": "85735"
        },
        "external": {
            "depositBalance(uint256)": "24523",
            "getBalance()": "2246",
            "withdrawBalance(uint256)": "26668"
        }
    }
}