{
  "contractName": "Crypto",
  "abi": [
    {
      "inputs": [],
      "stateMutability": "nonpayable",
      "type": "constructor"
    },
    {
      "inputs": [
        {
          "internalType": "uint256",
          "name": "amount",
          "type": "uint256"
        }
      ],
      "name": "depositBalance",
      "outputs": [],
      "stateMutability": "nonpayable",
      "type": "function"
    },
    {
      "inputs": [
        {
          "internalType": "uint256",
          "name": "amount",
          "type": "uint256"
        }
      ],
      "name": "withdrawBalance",
      "outputs": [],
      "stateMutability": "nonpayable",
      "type": "function"
    },
    {
      "inputs": [],
      "name": "getBalance",
      "outputs": [
        {
          "internalType": "uint256",
          "name": "",
          "type": "uint256"
        }
      ],
      "stateMutability": "view",
      "type": "function",
      "constant": true
    }
  ],
  "bytecode": "0x608060405234801561001057600080fd5b5060008081905550610318806100276000396000f3fe608060405234801561001057600080fd5b506004361061005e576000357c01000000000000000000000000000000000000000000000000000000009004806312065fe0146100635780631ec5763414610081578063da76d5cd1461009d575b600080fd5b61006b6100b9565b6040516100789190610155565b60405180910390f35b61009b600480360381019061009691906101a1565b6100c2565b005b6100b760048036038101906100b291906101a1565b6100dd565b005b60008054905090565b806000808282546100d391906101fd565b9250508190555050565b8060005411610121576040517f08c379a00000000000000000000000000000000000000000000000000000000081526004016101189061028e565b60405180910390fd5b8060008082825461013291906102ae565b9250508190555050565b6000819050919050565b61014f8161013c565b82525050565b600060208201905061016a6000830184610146565b92915050565b600080fd5b61017e8161013c565b811461018957600080fd5b50565b60008135905061019b81610175565b92915050565b6000602082840312156101b7576101b6610170565b5b60006101c58482850161018c565b91505092915050565b7f4e487b7100000000000000000000000000000000000000000000000000000000600052601160045260246000fd5b60006102088261013c565b91506102138361013c565b925082820190508082111561022b5761022a6101ce565b5b92915050565b600082825260208201905092915050565b7f566f7573206e6176657a2070617320617373657a20646520666f6e6400000000600082015250565b6000610278601c83610231565b915061028382610242565b602082019050919050565b600060208201905081810360008301526102a78161026b565b9050919050565b60006102b98261013c565b91506102c48361013c565b92508282039050818111156102dc576102db6101ce565b5b9291505056fea2646970667358221220150d4402cf91544217176bae5375a3367c8e0543bafdefc8d7433e6287c4900e64736f6c63430008110033",
  "immutableReferences": {},
  "source": "// SPDX-License-Identifier: GPL-3.0\r\npragma solidity >=0.7.0 <0.9.0;\r\n\r\n\r\ncontract Crypto {\r\n    uint balance;\r\n\r\n    constructor() {\r\n        balance = 0;\r\n    }\r\n\r\n    function depositBalance(uint amount) public {\r\n        balance += amount;\r\n    }\r\n  \r\n    function withdrawBalance(uint amount) public{\r\n        require(balance > amount, \"Vous navez pas assez de fond\");\r\n        balance -= amount;\r\n    }\r\n      function getBalance() view public returns (uint) {\r\n        return balance;\r\n    }\r\n}\r\n  ",
  "sourcePath": "C:\\Users\\rosby\\Desktop\\Projet\\apprxchange\\contracts\\Crypto.sol",
  "compiler": {
    "name": "solc",
    "version": "0.8.17+commit.8df45f5f.Emscripten.clang"
  },
  "schemaVersion": "3.4.10",
  "updatedAt": "2022-11-05T22:00:34.991Z",
  "networkType": "ethereum",
  "devdoc": {
    "kind": "dev",
    "methods": {},
    "version": 1
  },
  "userdoc": {
    "kind": "user",
    "methods": {},
    "version": 1
  }
}