{
  "contractName": "Crypto",
  "abi": [
    {
      "inputs": [],
      "stateMutability": "nonpayable",
      "type": "constructor"
    },
    {
      "inputs": [
        {
          "internalType": "int256",
          "name": "amount",
          "type": "int256"
        }
      ],
      "name": "depositBalance",
      "outputs": [],
      "stateMutability": "nonpayable",
      "type": "function"
    },
    {
      "inputs": [
        {
          "internalType": "int256",
          "name": "amount",
          "type": "int256"
        }
      ],
      "name": "withdrawBalance",
      "outputs": [],
      "stateMutability": "nonpayable",
      "type": "function"
    },
    {
      "inputs": [],
      "name": "getBalance",
      "outputs": [
        {
          "internalType": "int256",
          "name": "",
          "type": "int256"
        }
      ],
      "stateMutability": "view",
      "type": "function",
      "constant": true
    }
  ],
  "bytecode": "0x608060405234801561001057600080fd5b5060008081905550610337806100276000396000f3fe608060405234801561001057600080fd5b506004361061005e576000357c01000000000000000000000000000000000000000000000000000000009004806312065fe0146100635780637c52caa314610081578063e51ed0a01461009d575b600080fd5b61006b6100b9565b6040516100789190610155565b60405180910390f35b61009b600480360381019061009691906101a1565b6100c2565b005b6100b760048036038101906100b291906101a1565b610121565b005b60008054905090565b8060005413610106576040517f08c379a00000000000000000000000000000000000000000000000000000000081526004016100fd9061022b565b60405180910390fd5b80600080828254610117919061027a565b9250508190555050565b8060008082825461013291906102bd565b9250508190555050565b6000819050919050565b61014f8161013c565b82525050565b600060208201905061016a6000830184610146565b92915050565b600080fd5b61017e8161013c565b811461018957600080fd5b50565b60008135905061019b81610175565b92915050565b6000602082840312156101b7576101b6610170565b5b60006101c58482850161018c565b91505092915050565b600082825260208201905092915050565b7f566f7573206e6176657a2070617320617373657a20646520666f6e6400000000600082015250565b6000610215601c836101ce565b9150610220826101df565b602082019050919050565b6000602082019050818103600083015261024481610208565b9050919050565b7f4e487b7100000000000000000000000000000000000000000000000000000000600052601160045260246000fd5b60006102858261013c565b91506102908361013c565b92508282039050818112600084121682821360008512151617156102b7576102b661024b565b5b92915050565b60006102c88261013c565b91506102d38361013c565b9250828201905082811215600083121683821260008412151617156102fb576102fa61024b565b5b9291505056fea264697066735822122061149c30bcb3936d554594924d63d4da3b563249569046cd6f5a898929efdb4764736f6c63430008110033",
  "immutableReferences": {},
  "source": "// SPDX-License-Identifier: GPL-3.0\r\npragma solidity >=0.7.0 <0.9.0;\r\n\r\n\r\ncontract Crypto {\r\n    int balance;\r\n\r\n    constructor() {\r\n        balance = 0;\r\n    }\r\n\r\n    function depositBalance(int amount) public {\r\n        balance += amount;\r\n    }\r\n  \r\n    function withdrawBalance(int amount) public{\r\n        require(balance > amount, \"Vous navez pas assez de fond\");\r\n        balance -= amount;\r\n    }\r\n      function getBalance() view public returns (int) {\r\n        return balance;\r\n    }\r\n}\r\n  ",
  "sourcePath": "C:\\Users\\rosby\\Desktop\\Projet\\apprxchange\\contracts\\Crypto.sol",
  "compiler": {
    "name": "solc",
    "version": "0.8.17+commit.8df45f5f.Emscripten.clang"
  },
  "schemaVersion": "3.4.10",
  "updatedAt": "2022-11-05T16:27:48.681Z",
  "networkType": "ethereum",
  "devdoc": {
    "kind": "dev",
    "methods": {},
    "version": 1
  },
  "userdoc": {
    "kind": "user",
    "methods": {},
    "version": 1
  }
}