{
  "contractName": "Investment",
  "abi": [
    {
      "inputs": [],
      "stateMutability": "nonpayable",
      "type": "constructor"
    },
    {
      "anonymous": false,
      "inputs": [
        {
          "indexed": false,
          "internalType": "uint256",
          "name": "depositAmount",
          "type": "uint256"
        },
        {
          "indexed": false,
          "internalType": "uint256",
          "name": "balanceAmount",
          "type": "uint256"
        }
      ],
      "name": "BalanceChange",
      "type": "event"
    },
    {
      "inputs": [],
      "name": "getWallet",
      "outputs": [
        {
          "internalType": "uint256",
          "name": "_balanceAmount",
          "type": "uint256"
        },
        {
          "internalType": "uint256",
          "name": "_depositValue",
          "type": "uint256"
        }
      ],
      "stateMutability": "view",
      "type": "function",
      "constant": true
    },
    {
      "inputs": [
        {
          "internalType": "uint256",
          "name": "deposit",
          "type": "uint256"
        }
      ],
      "name": "addDepositAmount",
      "outputs": [],
      "stateMutability": "nonpayable",
      "type": "function"
    },
    {
      "inputs": [
        {
          "internalType": "uint256",
          "name": "withdraw",
          "type": "uint256"
        }
      ],
      "name": "withdrawAmount",
      "outputs": [],
      "stateMutability": "nonpayable",
      "type": "function"
    }
  ],
  "bytecode": "0x608060405234801561001057600080fd5b50600c600281905550600380819055506103e18061002f6000396000f3fe608060405234801561001057600080fd5b506004361061005e576000357c0100000000000000000000000000000000000000000000000000000000900480630562b9f714610063578063132996041461007f578063a59c12451461009e575b600080fd5b61007d60048036038101906100789190610232565b6100ba565b005b61008761015e565b60405161009592919061026e565b60405180910390f35b6100b860048036038101906100b39190610232565b610172565b005b80600054116100fe576040517f08c379a00000000000000000000000000000000000000000000000000000000081526004016100f5906102f4565b60405180910390fd5b8060008082825461010f9190610343565b9250508190555060006001819055507ff51af9a543295074204c9bb2d36c6f10cb6177e660fb80169592be98b37a4a9560015460005460405161015392919061026e565b60405180910390a150565b600080600054915081600154915091509091565b806001819055508060008082825461018a9190610377565b92505081905550600254600154106101b7576003546000808282546101af9190610377565b925050819055505b7ff51af9a543295074204c9bb2d36c6f10cb6177e660fb80169592be98b37a4a956001546000546040516101ec92919061026e565b60405180910390a150565b600080fd5b6000819050919050565b61020f816101fc565b811461021a57600080fd5b50565b60008135905061022c81610206565b92915050565b600060208284031215610248576102476101f7565b5b60006102568482850161021d565b91505092915050565b610268816101fc565b82525050565b6000604082019050610283600083018561025f565b610290602083018461025f565b9392505050565b600082825260208201905092915050565b7f6e6f7420656e6f7567682062616c616e63650000000000000000000000000000600082015250565b60006102de601283610297565b91506102e9826102a8565b602082019050919050565b6000602082019050818103600083015261030d816102d1565b9050919050565b7f4e487b7100000000000000000000000000000000000000000000000000000000600052601160045260246000fd5b600061034e826101fc565b9150610359836101fc565b925082820390508181111561037157610370610314565b5b92915050565b6000610382826101fc565b915061038d836101fc565b92508282019050808211156103a5576103a4610314565b5b9291505056fea2646970667358221220bbad37907dba821aa773fcd39473538aae4ddbf457c0aa8edd0cdc73bff0ab6f64736f6c63430008110033",
  "immutableReferences": {},
  "source": "// SPDX-License-Identifier: GPL-3.0\r\npragma solidity >=0.6.2 <0.9.0;\r\n\r\ncontract Investment {\r\n    uint256 balanceAmount;\r\n    uint256 depositValue;\r\n    uint256 thresholdAmount;\r\n    uint256 returnOnInvestment;\r\n\r\n    event BalanceChange(uint256 depositAmount, uint256 balanceAmount);\r\n\r\n    constructor() {\r\n        thresholdAmount = 12; // set the limit deposit to earn return\r\n        returnOnInvestment = 3;\r\n    }\r\n\r\n    function getWallet()\r\n        public\r\n        view\r\n        returns (\r\n            uint256 _balanceAmount,\r\n            uint256 _depositValue // getter for the wallet state\r\n        )\r\n    {\r\n        return (_balanceAmount = balanceAmount, _depositValue = depositValue);\r\n    }\r\n\r\n    function addDepositAmount(uint256 deposit) public {\r\n        depositValue = deposit; // increase deposit\r\n        balanceAmount += deposit; // decrease deposit\r\n\r\n        if (depositValue >= thresholdAmount) {\r\n            // check if will have return on investment\r\n            balanceAmount += returnOnInvestment;\r\n        }\r\n        emit BalanceChange(depositValue, balanceAmount); // emit event\r\n    }\r\n\r\n    function withdrawAmount(uint256 withdraw) public {\r\n        require(balanceAmount > withdraw, \"not enough balance\"); // check if there is enough\r\n        balanceAmount -= withdraw; // deduce the withdraw amount from the balance\r\n        depositValue = 0; // set the deposit value to 0 when making a withdraw\r\n\r\n        emit BalanceChange(depositValue, balanceAmount); // emit event\r\n    }\r\n}",
  "sourcePath": "C:\\Users\\rosby\\Desktop\\Projet\\apprxchange\\contracts\\Investment.sol",
  "compiler": {
    "name": "solc",
    "version": "0.8.17+commit.8df45f5f.Emscripten.clang"
  },
  "schemaVersion": "3.4.10",
  "updatedAt": "2022-11-05T22:00:38.750Z",
  "networkType": "ethereum",
  "devdoc": {
    "kind": "dev",
    "methods": {},
    "version": 1
  },
  "userdoc": {
    "kind": "user",
    "methods": {},
    "version": 1
  }
}